{
  "contractName": "Person",
  "abi": [
    {
      "constant": true,
      "inputs": [],
      "name": "name",
      "outputs": [
        {
          "name": "",
          "type": "string"
        }
      ],
      "payable": false,
      "stateMutability": "view",
      "type": "function"
    },
    {
      "inputs": [],
      "payable": false,
      "stateMutability": "nonpayable",
      "type": "constructor"
    },
    {
      "constant": false,
      "inputs": [
        {
          "name": "_name",
          "type": "string"
        }
      ],
      "name": "setName",
      "outputs": [],
      "payable": false,
      "stateMutability": "nonpayable",
      "type": "function"
    }
  ],
  "bytecode": "0x6060604052341561000f57600080fd5b33600160006101000a81548173ffffffffffffffffffffffffffffffffffffffff021916908373ffffffffffffffffffffffffffffffffffffffff1602179055506103218061005f6000396000f30060606040526004361061004c576000357c0100000000000000000000000000000000000000000000000000000000900463ffffffff16806306fdde0314610051578063c47f0027146100df575b600080fd5b341561005c57600080fd5b61006461013c565b6040518080602001828103825283818151815260200191508051906020019080838360005b838110156100a4578082015181840152602081019050610089565b50505050905090810190601f1680156100d15780820380516001836020036101000a031916815260200191505b509250505060405180910390f35b34156100ea57600080fd5b61013a600480803590602001908201803590602001908080601f016020809104026020016040519081016040528093929190818152602001838380828437820191505050505050919050506101da565b005b60008054600181600116156101000203166002900480601f0160208091040260200160405190810160405280929190818152602001828054600181600116156101000203166002900480156101d25780601f106101a7576101008083540402835291602001916101d2565b820191906000526020600020905b8154815290600101906020018083116101b557829003601f168201915b505050505081565b3373ffffffffffffffffffffffffffffffffffffffff16600160009054906101000a900473ffffffffffffffffffffffffffffffffffffffff1673ffffffffffffffffffffffffffffffffffffffff1614151561023657600080fd5b806000908051906020019061024c929190610250565b5050565b828054600181600116156101000203166002900490600052602060002090601f016020900481019282601f1061029157805160ff19168380011785556102bf565b828001600101855582156102bf579182015b828111156102be5782518255916020019190600101906102a3565b5b5090506102cc91906102d0565b5090565b6102f291905b808211156102ee5760008160009055506001016102d6565b5090565b905600a165627a7a7230582083f47de7fbd80846dbbfe871cab8958035c71dc1a43eec0b2ec12ac5476a796d0029",
  "source": "pragma solidity ^0.4.17;\n\ncontract Person {\n  string public name;\n  address owner;\n\n  function Person() public {\n    owner = msg.sender;\n  }\n\n  modifier onlyOwner() {\n    require(owner == msg.sender);\n    _;\n  }\n\n  function setName(string _name) public onlyOwner {\n    name = _name;\n  }\n}\n",
  "sourcePath": "/home/mesi/person/contracts/Person.sol",
  "compiler": {
    "name": "solc",
    "version": "0.4.19+commit.c4cbbb05.Emscripten.clang"
  },
  "schemaVersion": "2.0.0",
  "updatedAt": "2018-03-21T21:49:12.784Z"
}